:100000000C942A000C9474100C94A7100C94DA1021
:100010000C9447000C94F90D0C94080D0C94A20C50
:100020000C94D50C0C946F0C0C9447000C9465093F
:100030000C9447000C9447000C9447000C94470024
:100040000C9447000C9447000C9447000C94470014
:100050000C94470011241FBECFE5D8E0DEBFCDBF12
:1000600011E0A0E6B0E0E2E8F7E402C005900D92EE
:10007000A237B107D9F711E0A2E7B1E001C01D92A4
:10008000AC39B107E1F70E94FA220C94BF230C941B
:100090000000EF92FF920F931F937B018C0120E0F1
:1000A00030E040E05FE40E94F50388238CF0C80153
:1000B000B70120E030E040E05FE40E94C1010E940F
:1000C00055049B01AC01205030404040504806C0D0
:1000D000C801B7010E9455049B01AC01B901CA01D6
:1000E0001F910F91FF90EF900895A0E0B0E0EBE733
:1000F000F0E00C948823DC012B01FA019C919230F2
:1001000008F439C1EB018881823008F433C194309E
:1001100069F4843009F02FC111969C91119789815F
:10012000981709F428C1A0E6B0E025C1843009F48D
:1001300021C18230A9F4923009F01DC19A01AD01AC
:1001400088E0EA010990AE01E90109929E0181501F
:10015000C1F7E201898111969C918923818308C1AD
:10016000923009F407C112962D903C901397EB0141
:100170008A819B811496AD90BD90CD90DC901797AD
:10018000EC80FD800E811F819101281B390BB90184
:1001900037FF04C066277727621B730B6032710537
:1001A0000CF061C0121613066CF537014801062EDB
:1001B00004C096948794779467940A94D2F721E0C8
:1001C00030E040E050E004C0220F331F441F551FB1
:1001D0006A95D2F721503040404050402E213F21B7
:1001E00040235123211531054105510521F021E01E
:1001F00030E040E050E079018A01E628F72808293C
:1002000019293CC0232BD1F1260E371E350146019A
:10021000062E04C096948794779467940A94D2F734
:1002200021E030E040E050E004C0220F331F441FC3
:10023000551F6A95D2F721503040404050402A2146
:100240003B214C215D21211531054105510521F04E
:1002500021E030E040E050E059016A01A628B728CB
:10026000C828D9280BC0821593052CF01C01AA249C
:10027000BB24650103C0EE24FF24870111969C91E5
:10028000D20111968C91981709F445C0992339F041
:10029000A80197012A193B094C095D0906C0A6016E
:1002A00095012E193F09400B510B57FD08C01182D3
:1002B0003382228224833583468357831DC081E0A5
:1002C00081833382228288279927DC01821B930B4A
:1002D000A40BB50B84839583A683B7830DC0220F2F
:1002E000331F441F551F24833583468357838281E0
:1002F000938101979383828324813581468157813D
:10030000DA01C9010197A109B1098F5F9F4FAF4F72
:10031000BF4328F30BC0918333822282EA0CFB1C7B
:100320000C1D1D1DE482F5820683178383E0808304
:10033000248135814681578157FF1AC0C901AA27F8
:1003400097FDA095BA2F81709070A070B0705695EF
:10035000479537952795822B932BA42BB52B848318
:100360009583A683B7838281938101969383828349
:10037000DF0101C0D201CD01CDB7DEB7E2E10C94BF
:10038000A423A0E2B0E0E7ECF1E00C9494236983AD
:100390007A838B839C832D833E834F835887E9E048
:1003A000EE2EF12CEC0EFD1ECE010196B7010E943F
:1003B00046068E010F5E1F4FCE010596B8010E94C2
:1003C00046068A8991E089278A8BC701B801AE0168
:1003D000475E5F4F0E9475000E947105A096E6E09F
:1003E0000C94B023A0E2B0E0E8EFF1E00C94942389
:1003F00069837A838B839C832D833E834F835887C5
:10040000F9E0EF2EF12CEC0EFD1ECE010196B701A6
:100410000E9446068E010F5E1F4FCE010596B80161
:100420000E944606C701B801AE01475E5F4F0E94B9
:1004300075000E947105A096E6E00C94B023A0E23E
:10044000B0E0E5E2F2E00C94882369837A838B8341
:100450009C832D833E834F835887CE010196BE0136
:10046000675F7F4F0E944606CE010596BE016F5E14
:100470007F4F0E9446069985923088F089898230A4
:10048000C8F0943019F4823051F404C0843029F457
:10049000923081F480E690E0C6C0923049F420E0CA
:1004A0009A858A89981321E02A87CE010996BBC0D4
:1004B000823049F420E09A858A89981321E02A8BBA
:1004C000CE014196B0C02D843E844F8458886D88FB
:1004D0007E888F88988CEE24FF248701AA24BB2471
:1004E000650140E050E060E070E0E0E0F0E0C10174
:1004F00081709070892BE9F0E60CF71C081D191D1E
:100500009A01AB012A0D3B1D4C1D5D1D80E090E062
:10051000A0E0B0E0E614F7040805190520F481E036
:1005200090E0A0E0B0E0BA01A901480F591F6A1F8E
:100530007B1FAA0CBB1CCC1CDD1C97FE08C081E0F5
:1005400090E0A0E0B0E0A82AB92ACA2ADB2A3196B6
:10055000E032F10549F0660C771C881C991C569412
:10056000479437942794C3CFFA85EA892B893C892D
:100570008B859C85280F391F2E5F3F4F17C0CA01FE
:1005800081709070892B61F016950795F794E79428
:1005900080E090E0A0E0B0E8E82AF92A0A2B1B2BC3
:1005A00076956795579547952F5F3F4F77FDE7CF36
:1005B0000CC0440F551F661F771F17FD4160EE0CDE
:1005C000FF1C001F111F21503040403090E05907A0
:1005D00090E0690790E4790760F32B8F3C8FDB0193
:1005E000CA018F779070A070B07080349105A1051A
:1005F000B10561F447FD0AC0E114F10401051105DC
:1006000029F0405C5F4F6F4F7F4F40781A8EFE1786
:1006100011F081E08A8F4D8F5E8F6F8F78A383E01A
:10062000898FCE0149960E947105A096E2E10C9453
:10063000A423A8E1B0E0EFE1F3E00C9490236983F8
:100640007A838B839C832D833E834F835887B9E0C5
:10065000EB2EF12CEC0EFD1ECE010196B7010E948F
:1006600046068E010F5E1F4FCE010596B8010E940F
:1006700046062985223008F47EC03989323010F4CC
:10068000B8017CC08A859A8989278A87243011F02D
:10069000223031F4231709F06EC060E670E06EC0BE
:1006A000343039F41D861E861F86188A1C861B86E8
:1006B00004C0323021F484E08987B7015FC02B8504
:1006C0003C858B899C89281B390B3C872B87ED84C3
:1006D000FE840F851889AD88BE88CF88D88CEA142F
:1006E000FB040C051D0540F4EE0CFF1C001F111F40
:1006F000215030403C872B8720E030E040E050E044
:1007000080E090E0A0E0B0E460E070E0EA14FB0478
:100710000C051D0540F0282B392B4A2B5B2BEA18C2
:10072000FB080C091D09B695A79597958795EE0CC2
:10073000FF1C001F111F6F5F7F4F6F31710531F775
:10074000DA01C9018F779070A070B0708034910584
:10075000A105B10561F427FD0AC0E114F10401050A
:10076000110529F0205C3F4F4F4F5F4F20782D87B8
:100770003E874F87588BBE01675F7F4FCB010E943A
:1007800071056896EAE00C94AC23A8E1B0E0EBECCC
:10079000F3E00C94942369837A838B839C832D8369
:1007A0003E834F83588789E0E82EF12CEC0EFD1E26
:1007B000CE010196B7010E9446068E010F5E1F4FC3
:1007C000CE010596B8010E9446068985823040F028
:1007D0008989823028F0C701B8010E94BE0601C095
:1007E0008FEF6896E6E00C94B023A8E1B0E0EBEF61
:1007F000F3E00C94942369837A838B839C832D8309
:100800003E834F83588789E0E82EF12CEC0EFD1EC5
:10081000CE010196B7010E9446068E010F5E1F4F62
:10082000CE010596B8010E9446068985823040F0C7
:100830008989823028F0C701B8010E94BE0601C034
:100840008FEF6896E6E00C94B023A8E1B0E0EBE20D
:10085000F4E00C94942369837A838B839C832D83A7
:100860003E834F83588789E0E82EF12CEC0EFD1E65
:10087000CE010196B7010E9446068E010F5E1F4F02
:10088000CE010596B8010E9446068985823040F067
:100890008989823028F0C701B8010E94BE0601C0D4
:1008A00081E06896E6E00C94B023ACE0B0E0EBE5C4
:1008B000F4E00C94982369837A838B839C83CE0124
:1008C0000196BE016B5F7F4F0E9446068D8182308C
:1008D00061F1823050F1843021F48E81882351F10E
:1008E0002EC02F81388537FD20C06E812F31310514
:1008F0001CF06623F9F023C08EE190E0821B930B7D
:1009000029853A854B855C8504C056954795379572
:1009100027958A95D2F76623B1F05095409530958A
:1009200021953F4F4F4F5F4F0EC020E030E040E039
:1009300050E009C02FEF3FEF4FEF5FE704C020E02A
:1009400030E040E050E8B901CA012C96E2E00C9496
:10095000B423A8E0B0E0EFEAF4E00C9490237B012C
:100960008C01611571058105910519F482E0898377
:1009700060C083E089838EE1C82ED12CDC82CB82DB
:10098000ED82FE820F831887C801B7010E942205FD
:10099000FC013197F7FF3BC0222733272E1B3F0B6B
:1009A00057016801022E04C0D694C794B794A79447
:1009B0000A94D2F740E050E060E070E081E090E01F
:1009C000A0E0B0E004C0880F991FAA1FBB1F2A95A2
:1009D000D2F70197A109B1098E219F21A023B1234C
:1009E0000097A105B10521F041E050E060E070E022
:1009F0004A295B296C297D294D835E836F83788723
:100A00008EE190E08E1B9F0B9C838B8312C03097EE
:100A100081F00E2E04C0EE0CFF1C001F111F0A9463
:100A2000D2F7ED82FE820F831887CE1ADF0ADC82AE
:100A3000CB821A82CE0101960E9471052896EAE0C7
:100A40000C94AC23EF92FF920F931F937B018C01C8
:100A500080E0E81680E0F80681E0080780E01807EB
:100A600088F48FEFE816F1040105110531F028F044
:100A700088E090E0A0E0B0E017C080E090E0A0E067
:100A8000B0E012C080E0E81680E0F80680E00807D9
:100A900081E0180728F088E190E0A0E0B0E004C011
:100AA00080E190E0A0E0B0E020E230E040E050E003
:100AB000281B390B4A0B5B0B04C016950795F7945E
:100AC000E7948A95D2F7F701E859FF4F8081281BF8
:100AD000310941095109C9011F910F91FF90EF9010
:100AE0000895DF92EF92FF920F931F93FC01E48031
:100AF000F58006811781D1808081823048F480E0C2
:100B000090E0A0E1B0E0E82AF92A0A2B1B2BA5C04F
:100B1000843009F49FC0823021F4EE24FF24870141
:100B200005C0E114F1040105110519F4E0E0F0E05D
:100B300096C0628173819FEF623879070CF05BC0C9
:100B400022E83FEF261B370B2A3131052CF020E03D
:100B500030E040E050E02AC0B801A701022E04C0F6
:100B600076956795579547950A94D2F781E090E07E
:100B7000A0E0B0E004C0880F991FAA1FBB1F2A95F0
:100B8000D2F70197A109B1098E219F21A023B1239A
:100B90000097A105B10521F081E090E0A0E0B0E070
:100BA0009A01AB01282B392B4A2B5B2BDA01C901A7
:100BB0008F779070A070B07080349105A105B10559
:100BC00039F427FF09C0205C3F4F4F4F5F4F04C0EF
:100BD000215C3F4F4F4F5F4FE0E0F0E02030A0E05E
:100BE0003A07A0E04A07A0E45A0710F0E1E0F0E07D
:100BF00079018A0127C06038710564F5FB01E1586D
:100C0000FF4FD801C7018F779070A070B07080340B
:100C10009105A105B10539F4E7FE0DC080E490E02F
:100C2000A0E0B0E004C08FE390E0A0E0B0E0E80E08
:100C3000F91E0A1F1B1F17FF05C016950795F7948D
:100C4000E794319687E016950795F794E7948A958F
:100C5000D1F705C0EE24FF248701EFEFF0E06E2FFF
:100C6000679566276795902F9F77D794DD24D79453
:100C70008E2F8695492F462B582F5D29B701CA0123
:100C80001F910F91FF90EF90DF900895FC01DB0121
:100C9000408151812281622F6F7770E0221F2227CD
:100CA000221F9381892F880F822B282F30E0991FD4
:100CB0009927991F11969C93119721153105A9F534
:100CC000411551056105710511F482E037C082E8D4
:100CD0009FEF13969C938E9312979A01AB0167E056
:100CE000220F331F441F551F6A95D1F783E08C9361
:100CF0000DC0220F331F441F551F12968D919C91DA
:100D00001397019713969C938E931297203080E04F
:100D1000380780E0480780E4580758F314962D936D
:100D20003D934D935C93179708952F3F310579F4C8
:100D3000411551056105710519F484E08C930895FE
:100D400064FF03C081E08C9312C01C9210C02F5727
:100D5000304013963C932E93129783E08C9387E058
:100D6000440F551F661F771F8A95D1F7706414963C
:100D70004D935D936D937C93179708951F93DC01BA
:100D8000FB019C91923008F447C08081823008F4C6
:100D900043C0943051F411961C91843099F58181AF
:100DA000682F70E0611B71093FC0843021F09230E0
:100DB00031F48230B9F18181882389F12DC01196F7
:100DC0001C9111978230F1F081811817D9F4129695
:100DD0002D913C911397828193818217930794F010
:100DE00028173907BCF014968D919D910D90BC91F8
:100DF000A02D2481358146815781281739074A075C
:100E00005B0718F4112341F00AC082179307A40767
:100E1000B50740F4112319F061E070E005C06FEFF1
:100E20007FEF02C060E070E0CB011F910895DF9377
:100E3000CF93CDB7DEB728970FB6F894DEBF0FBEBD
:100E4000CDBF8A836B834C8381E089838A81282F7D
:100E500030E038872F838F8198858130910521F18B
:100E60002F813885223031052CF48F8198850097A9
:100E700061F047C02F8138852230310521F18F8103
:100E800098858330910571F13CC0A3E5B0E0E3E5BE
:100E9000F0E080818F7B8C93A3E5B0E0E3E5F0E0A8
:100EA0008081877F8C932EC0A3E5B0E0E3E5F0E07E
:100EB000808180648C93A3E5B0E0E3E5F0E080817D
:100EC000877F8C931FC0A3E5B0E0E3E5F0E080816D
:100ED0008F7B8C93A3E5B0E0E3E5F0E08081886050
:100EE0008C9310C0A3E5B0E0E3E5F0E0808180647E
:100EF0008C93A3E5B0E0E3E5F0E0808188608C931B
:100F000001C01982A3E5B0E0E3E5F0E08081887FCD
:100F10008C93A3E5B0E0E3E5F0E090818B81892B31
:100F20008C938B81882F90E0909369018093680166
:100F30008C81282F30E03E832D838D819E818130EE
:100F4000910521F12D813E81223031052CF48D81D6
:100F50009E81009761F047C02D813E81223031058E
:100F600021F18D819E818330910571F13CC0A3E513
:100F7000B0E0E3E5F0E080818F7E8C93A3E5B0E004
:100F8000E3E5F0E080818F7D8C932EC0A3E5B0E097
:100F9000E3E5F0E0808180618C93A3E5B0E0E3E5D8
:100FA000F0E080818F7D8C931FC0A3E5B0E0E3E586
:100FB000F0E080818F7E8C93A3E5B0E0E3E5F0E084
:100FC000808180628C9310C0A3E5B0E0E3E5F0E09F
:100FD000808180618C93A3E5B0E0E3E5F0E080815F
:100FE00080628C9301C01982898128960FB6F8948B
:100FF000DEBF0FBECDBFCF91DF910895DF93CF93BA
:1010000000D0CDB7DEB789836A838A81833081F4CB
:10101000ECE5F0E08981882F90E0982F882724E67E
:1010200030E0B9010E943823CB01809580831DC038
:101030008A818230D1F4ECE5F0E08981482F50E0DC
:10104000CA019C01220F331FC9019695982F88274A
:1010500097958795821B930B840F951F24E630E0AC
:10106000B9010E943823CB0180830F900F90CF915C
:10107000DF910895DF93CF9300D0CDB7DEB789839A
:101080006A838A81833081F4ECE5F0E08981882FDE
:1010900090E0982F882724E630E0B9010E94382399
:1010A000CB018150808312C08A81823079F4ECE5D3
:1010B000F0E08981882F90E0982F882724E630E09F
:1010C000B9010E943823CB01809580830F900F9047
:1010D000CF91DF910895DF93CF93CDB7DEB7AFE522
:1010E000B0E0EFE5F0E0808180688C93A9E5B0E0A6
:1010F000E9E5F0E0808181608C93CF91DF910895E4
:10110000DF93CF93CDB7DEB7A9E5B0E0E9E5F0E036
:1011100080818E7F8C93CF91DF910895DF93CF9361
:10112000CDB7DEB7A9E5B0E0E9E5F0E08081826007
:101130008C93CF91DF910895DF93CF93CDB7DEB736
:10114000A9E5B0E0E9E5F0E080818D7F8C93CF9157
:10115000DF910895DF93CF93CDB7DEB780919B01E8
:10116000CF91DF910895DF93CF9300D0CDB7DEB755
:101170009A83898389819A8190937B0180937A01F4
:101180000F900F90CF91DF910895DF93CF93CDB75C
:10119000DEB72D970FB6F894DEBF0FBECDBF6A87BE
:1011A0007B878C879D8781E08987809168019091FA
:1011B00069018230910539F488E090E090936901EB
:1011C000809368012BC08091680190916901833000
:1011D000910539F480E490E090936901809368016F
:1011E0001DC080916801909169018430910539F4A6
:1011F00080E091E090936901809368010FC0809135
:101200006801909169018530910539F480E094E09E
:10121000909369018093680101C0198680916801EB
:1012200090916901CC01A0E0B0E0BC01CD010E9429
:10123000A904DC01CB01BC01CD0120E030E040E09D
:1012400051E40E941903DC01CB018D839E83AF839F
:10125000B8876A857B858C859D850E94A904DC0101
:10126000CB01BC01CD012D813E814F8158850E946B
:101270001903DC01CB01BC01CD010E944900DC0156
:10128000CB0189839A83AB83BC8389819A81AB81AB
:10129000BC812AEF30E040E050E0BC01CD010E946B
:1012A0004B23DA01C90180936A0190936B01A093EB
:1012B0006C01B0936D0189852D960FB6F894DEBF51
:1012C0000FBECDBFCF91DF9108951F920F920FB641
:1012D0000F9211242F933F934F935F936F937F93BC
:1012E0008F939F93AF93BF93EF93FF93DF93CF932E
:1012F000CDB7DEB7E2E5F0E086E0808380917E0145
:1013000090917F01A0918001B0918101883C91056D
:10131000A105B10598F480917E0190917F01A09183
:101320008001B09181010196A11DB11D80937E01C4
:1013300090937F01A0938001B093810180918201FD
:1013400090918301A0918401B09185010196A11D26
:10135000B11D8093820190938301A0938401B09387
:1013600085018091860190918701A0918801B091BB
:1013700089010196A11DB11D80938601909387017B
:10138000A0938801B093890180917A0190917B01AB
:10139000009729F0E0917A01F0917B010995CF91B6
:1013A000DF91FF91EF91BF91AF919F918F917F91CD
:1013B0006F915F914F913F912F910F900FBE0F90C2
:1013C0001F901895DF93CF93CDB7DEB72B970FB64D
:1013D000F894DEBF0FBECDBF8A836B834C832D8311
:1013E00081E089838A81282F30E03B872A878A859C
:1013F0009B858230910509F456C02A853B852330B0
:10140000310554F48A859B85009799F02A853B85A0
:101410002130310559F19EC08A859B858330910525
:1014200009F45EC02A853B852430310509F475C076
:1014300091C0AFE4B0E0EFE4F0E080818E7F8C9368
:10144000AFE4B0E0EFE4F0E080818D7F8C93AEE418
:10145000B0E0EEE4F0E08081877F8C93AEE4B0E012
:10146000EEE4F0E080818F7E8C9375C0AFE4B0E055
:10147000EFE4F0E080818E7F8C93AFE4B0E0EFE4A6
:10148000F0E080818D7F8C93AEE4B0E0EEE4F0E09C
:10149000808188608C93AEE4B0E0EEE4F0E080817F
:1014A00080618C9358C0AFE4B0E0EFE4F0E080815D
:1014B0008E7F8C93AFE4B0E0EFE4F0E080818D7F2D
:1014C0008C93AEE4B0E0EEE4F0E0808188608C9331
:1014D000AEE4B0E0EEE4F0E080818F7E8C933BC020
:1014E000AFE4B0E0EFE4F0E080818E7F8C93AFE476
:1014F000B0E0EFE4F0E0808182608C93AEE4B0E095
:10150000EEE4F0E0808188608C93AEE4B0E0EEE43D
:10151000F0E0808180618C931EC0AFE4B0E0EFE426
:10152000F0E0808181608C93AFE4B0E0EFE4F0E024
:10153000808182608C93AEE4B0E0EEE4F0E08081E4
:1015400088608C93AEE4B0E0EEE4F0E080818061EE
:101550008C9301C019828C81282F30E0398728872D
:10156000888599858130910521F12885398522303A
:1015700031052CF488859985009761F047C028854E
:1015800039852230310521F188859985833091058F
:1015900071F13CC0AFE4B0E0EFE4F0E080818F7B1C
:1015A0008C93AFE4B0E0EFE4F0E080818F778C9330
:1015B0002EC0AFE4B0E0EFE4F0E0808180648C9373
:1015C000AFE4B0E0EFE4F0E080818F778C931FC050
:1015D000AFE4B0E0EFE4F0E080818F7B8C93AFE488
:1015E000B0E0EFE4F0E0808180688C9310C0AFE45D
:1015F000B0E0EFE4F0E0808180648C93AFE4B0E091
:10160000EFE4F0E0808180688C9301C019828D81C5
:10161000282F30E03F832E838E819F81813091057A
:1016200021F12E813F81223031052CF48E819F8162
:10163000009761F047C02E813F812230310521F1B2
:101640008E819F818330910571F13CC0AFE4B0E0A1
:10165000EFE4F0E080818F7E8C93AFE4B0E0EFE4C4
:10166000F0E080818F7D8C932EC0AFE4B0E0EFE49A
:10167000F0E0808180618C93AFE4B0E0EFE4F0E0D3
:1016800080818F7D8C931FC0AFE4B0E0EFE4F0E089
:1016900080818F7E8C93AFE4B0E0EFE4F0E0808156
:1016A00080628C9310C0AFE4B0E0EFE4F0E08081A2
:1016B00080618C93AFE4B0E0EFE4F0E08081806281
:1016C0008C9301C01982AEE4B0E0EEE4F0E08081DA
:1016D000887F8C93AEE4B0E0EEE4F0E090818B8103
:1016E000892B8C9389812B960FB6F894DEBF0FBEA1
:1016F000CDBFCF91DF910895DF93CF930F92CDB7F8
:10170000DEB789838981882341F4AEE4B0E0EEE45A
:10171000F0E0808180648C930AC08981813039F443
:10172000AEE4B0E0EEE4F0E080818F7B8C930F902C
:10173000CF91DF910895DF93CF93CDB7DEB7AFE5BB
:10174000B0E0EFE5F0E0808180688C93A9E5B0E03F
:10175000E9E5F0E0808180628C93CF91DF9108957C
:10176000DF93CF93CDB7DEB7A9E5B0E0E9E5F0E0D0
:1017700080818F7D8C93CF91DF910895DF93CF93FC
:10178000CDB7DEB7AFE5B0E0EFE5F0E0808180688F
:101790008C93A9E5B0E0E9E5F0E0808184608C936A
:1017A000CF91DF910895DF93CF93CDB7DEB7A9E551
:1017B000B0E0E9E5F0E080818B7F8C93CF91DF9101
:1017C0000895DF93CF93CDB7DEB7AFE5B0E0EFE597
:1017D000F0E0808180688C93A9E5B0E0E9E5F0E075
:1017E000808180618C93CF91DF910895DF93CF93B7
:1017F000CDB7DEB7A9E5B0E0E9E5F0E080818F7E06
:101800008C93CF91DF910895DF93CF93CDB7DEB75F
:10181000AFE5B0E0EFE5F0E0808180688C93A9E56A
:10182000B0E0E9E5F0E0808188608C93CF91DF91B2
:101830000895DF93CF93CDB7DEB7A9E5B0E0E9E532
:10184000F0E08081877F8C93CF91DF910895DF93C3
:10185000CF9300D0CDB7DEB79A83898389819A81EF
:1018600090937301809372010F900F90CF91DF914D
:101870000895DF93CF9300D0CDB7DEB79A838983E5
:1018800089819A8190937501809374010F900F90D4
:10189000CF91DF910895DF93CF9300D0CDB7DEB71E
:1018A0009A83898389819A819093770180937601C5
:1018B0000F900F90CF91DF910895DF93CF9300D0D9
:1018C000CDB7DEB79A83898389819A819093790114
:1018D000809378010F900F90CF91DF9108951F9220
:1018E0000F920FB60F9211242F933F934F935F9354
:1018F0006F937F938F939F93AF93BF93EF93FF93D8
:10190000DF93CF93CDB7DEB78091720190917301D1
:10191000009729F0E0917201F09173010995CF9140
:10192000DF91FF91EF91BF91AF919F918F917F9147
:101930006F915F914F913F912F910F900FBE0F903C
:101940001F9018951F920F920FB60F9211242F938C
:101950003F934F935F936F937F938F939F93AF9337
:10196000BF93EF93FF93DF93CF93CDB7DEB7809113
:10197000740190917501009729F0E0917401F09144
:1019800075010995CF91DF91FF91EF91BF91AF91D3
:101990009F918F917F916F915F914F913F912F9187
:1019A0000F900FBE0F901F9018951F920F920FB6B9
:1019B0000F9211242F933F934F935F936F937F93D5
:1019C0008F939F93AF93BF93EF93FF93DF93CF9347
:1019D000CDB7DEB78091760190917701009729F01D
:1019E000E0917601F09177010995CF91DF91FF9118
:1019F000EF91BF91AF919F918F917F916F915F9187
:101A00004F913F912F910F900FBE0F901F901895FF
:101A10001F920F920FB60F9211242F933F934F9363
:101A20005F936F937F938F939F93AF93BF93EF9346
:101A3000FF93DF93CF93CDB7DEB78091780190917C
:101A40007901009729F0E0917801F09179010995E9
:101A5000CF91DF91FF91EF91BF91AF919F918F91C6
:101A60007F916F915F914F913F912F910F900FBE9A
:101A70000F901F901895DF93CF9300D000D00F9256
:101A8000CDB7DEB78A836B8381E089838A81282F73
:101A900030E03D832C838C819D818130910521F143
:101AA0002C813D81223031052CF48C819D81009761
:101AB00061F047C02C813D812230310521F18C81BC
:101AC0009D818330910571F13CC0A5E4B0E0E5E46F
:101AD000F0E08081877F8C93A5E4B0E0E5E4F0E05E
:101AE00080818F7B8C932EC0A5E4B0E0E5E4F0E02C
:101AF000808180648C93A5E4B0E0E5E4F0E080812F
:101B0000877F8C931FC0A5E4B0E0E5E4F0E080811E
:101B10008F7B8C93A5E4B0E0E5E4F0E08081886001
:101B20008C9310C0A5E4B0E0E5E4F0E0808180642F
:101B30008C93A5E4B0E0E5E4F0E0808188608C93CC
:101B400001C01982A5E4B0E0E5E4F0E08081887F7F
:101B50008C93A5E4B0E0E5E4F0E090818B81892BE3
:101B60008C9389810F900F900F900F900F90CF91D1
:101B7000DF910895DF93CF93CDB7DEB7E4E4F0E0D3
:101B80008081CF91DF910895DF93CF93CDB7DEB7FA
:101B9000A9E5B0E0E9E5F0E0808180648C93AFE5F1
:101BA000B0E0EFE5F0E0808180688C93CF91DF9129
:101BB0000895DF93CF93CDB7DEB7A9E5B0E0E9E5AF
:101BC000F0E080818F7B8C93CF91DF910895DF933C
:101BD000CF9300D0CDB7DEB79A83898389819A816C
:101BE00090937D0180937C010F900F90CF91DF91B6
:101BF00008951F920F920FB60F9211242F933F93C7
:101C00004F935F936F937F938F939F93AF93BF9304
:101C1000EF93FF93DF93CF93CDB7DEB780917C0135
:101C200090917D01009729F0E0917C01F0917D0178
:101C30000995CF91DF91FF91EF91BF91AF919F9166
:101C40008F917F916F915F914F913F912F910F9065
:101C50000FBE0F901F901895DF93CF930F92CDB7C3
:101C6000DEB781E08983AFE4B0E0EFE4F0E08081AB
:101C70008E7F8C93AFE4B0E0EFE4F0E080818D7F65
:101C80008C93AEE4B0E0EEE4F0E08081877F8C934B
:101C9000AEE4B0E0EEE4F0E0808180618C93AFE4EC
:101CA000B0E0EFE4F0E080818F7B8C93AFE4B0E0B4
:101CB000EFE4F0E0808180688C93AFE4B0E0EFE483
:101CC000F0E080818F7E8C93AFE4B0E0EFE4F0E051
:101CD000808180628C93AEE4B0E0EEE4F0E080813D
:101CE000887F8C93AEE4B0E0EEE4F0E08081826027
:101CF0008C9389810F90CF91DF9108950F931F935B
:101D0000DF93CF9300D0CDB7DEB78A83E6E4F0E06F
:101D100084ED90E39183808381E089830AE410E07D
:101D20008A81882F90E0A0E0B0E024ED30E340E02D
:101D300050E0BC01CD010E940523DC01CB0124E66B
:101D400030E040E050E0BC01CD010E944B23DA01BD
:101D5000C901F8019183808308E410E08A81882F0B
:101D600090E0A0E0B0E024ED30E340E050E0BC01C2
:101D7000CD010E940523DC01CB0124E630E040E0E8
:101D800050E0BC01CD010E944B23DA01C901F801EA
:101D90009183808389810F900F90CF91DF911F9164
:101DA0000F910895DF93CF9300D000D0CDB7DEB769
:101DB0008A8319828A81282F30E03C832B838B8190
:101DC0009C8181309105C1F02B813C81223031050D
:101DD00011F18B819C81009769F5ABE5B0E0EBE5F3
:101DE000F0E0808180648C93AFE5B0E0EFE5F0E057
:101DF000808180688C9320C0ABE5B0E0EBE5F0E03B
:101E0000808180688C93AFE5B0E0EFE5F0E0808101
:101E100080688C9311C0ABE5B0E0EBE5F0E0808129
:101E200080628C93AFE5B0E0EFE5F0E08081806800
:101E30008C9302C081E0898389810F900F900F906D
:101E40000F90CF91DF910895DF93CF9300D000D012
:101E5000CDB7DEB78A8319828A81282F30E03C8390
:101E60002B838B819C8181309105C1F02B813C813A
:101E70002230310511F18B819C81009769F5ABE52A
:101E8000B0E0EBE5F0E080818F7B8C93AFE5B0E0D4
:101E9000EFE5F0E080818F778C9320C0ABE5B0E078
:101EA000EBE5F0E080818F778C93AFE5B0E0EFE574
:101EB000F0E080818F778C9311C0ABE5B0E0EBE56B
:101EC000F0E080818F7D8C93AFE5B0E0EFE5F0E04E
:101ED00080818F778C9302C081E0898389810F9004
:101EE0000F900F900F90CF91DF910895DF93CF93D4
:101EF000CDB7DEB729970FB6F894DEBF0FBECDBFC2
:101F00008A836B8319828A81282F30E0398728875A
:101F10008885998581309105D9F0288539852230C9
:101F2000310509F473C088859985009709F091C03F
:101F3000A5E5B0E0E5E5F0E080818C7F8C93A5E538
:101F4000B0E0E5E5F0E090818B81892B8C9383C034
:101F50008B81282F30E03F832E838E819F818130BB
:101F6000910521F12E813F81223031052CF48E81A3
:101F70009F81009761F047C02E813F81223031055B
:101F800021F18E819F818330910571F13CC0A5E5DF
:101F9000B0E0E5E5F0E080818B7F8C93A5E5B0E0D3
:101FA000E5E5F0E08081877F8C9355C0A5E5B0E042
:101FB000E5E5F0E0808184608C93A5E5B0E0E5E59F
:101FC000F0E08081877F8C9346C0A5E5B0E0E5E531
:101FD000F0E080818B7F8C93A5E5B0E0E5E5F0E053
:101FE000808188608C9337C0A5E5B0E0E5E5F0E03E
:101FF000808184608C93A5E5B0E0E5E5F0E0808128
:1020000088608C9328C081E0898325C08B81282F2C
:1020100030E03D832C838C819D818230910531F0AD
:102020002C813D812330310549F010C0A4E5B0E09A
:10203000E4E5F0E080818F7B8C930DC0A4E5B0E0F7
:10204000E4E5F0E0808180648C9305C081E08983C1
:1020500002C081E08983898129960FB6F894DEBF9A
:102060000FBECDBFCF91DF910895DF93CF9300D006
:1020700000D000D0CDB7DEB78A837C836B83198212
:102080008A81282F30E03E832D838D819E8181308F
:10209000910581F02D813E812230310591F08D81B5
:1020A0009E810097A9F48B819C8190938B018093F2
:1020B0008A0110C08B819C8190938D0180938C014B
:1020C00009C08B819C8190938F0180938E0102C007
:1020D00081E08983898126960FB6F894DEBF0FBE12
:1020E000CDBFCF91DF9108951F920F920FB60F923F
:1020F00011242F933F934F935F936F937F938F930D
:102100009F93AF93BF93EF93FF93DF93CF93CDB79D
:10211000DEB780918A0190918B01009729F0E091C0
:102120008A01F0918B010995CF91DF91FF91EF9199
:10213000BF91AF919F918F917F916F915F914F91DF
:102140003F912F910F900FBE0F901F9018951F92E7
:102150000F920FB60F9211242F933F934F935F93DB
:102160006F937F938F939F93AF93BF93EF93FF935F
:10217000DF93CF93CDB7DEB780918C0190918D0125
:10218000009729F0E0918C01F0918D010995CF9194
:10219000DF91FF91EF91BF91AF919F918F917F91CF
:1021A0006F915F914F913F912F910F900FBE0F90C4
:1021B0001F9018951F920F920FB60F9211242F9314
:1021C0003F934F935F936F937F938F939F93AF93BF
:1021D000BF93EF93FF93DF93CF93CDB7DEB780919B
:1021E0008E0190918F01009729F0E0918E01F0917E
:1021F0008F010995CF91DF91FF91EF91BF91AF9141
:102200009F918F917F916F915F914F913F912F910E
:102210000F900FBE0F901F901895DF93CF93CDB7FF
:10222000DEB728970FB6F894DEBF0FBECDBF8A8306
:102230006B834C8381E089838C81882309F076C08D
:102240008A81282F30E038872F838F8198858130CD
:10225000910559F12F813885223031052CF48F8179
:102260009885009769F060C02F813885223031054C
:1022700089F18F8198858330910509F440C054C05D
:10228000ABE3B0E0EBE3F0E08081482F8B81282FB7
:1022900030E081E090E0022E02C0880F991F0A947E
:1022A000E2F7809584238C93B5C0A8E3B0E0E8E31F
:1022B000F0E08081482F8B81282F30E081E090E092
:1022C000022E02C0880F991F0A94E2F7809584239A
:1022D0008C93A0C0A5E3B0E0E5E3F0E08081482F57
:1022E0008B81282F30E081E090E0022E02C0880F21
:1022F000991F0A94E2F7809584238C938BC0A2E304
:10230000B0E0E2E3F0E08081482F8B81282F30E0BD
:1023100081E090E0022E02C0880F991F0A94E2F734
:10232000809584238C9376C0198274C08C8181300F
:1023300009F070C08A81282F30E03E832D838D8183
:102340009E818130910549F12D813E8122303105F8
:102350002CF48D819E81009761F05BC02D813E81C0
:102360002230310571F18D819E8183309105E9F133
:1023700050C0ABE3B0E0EBE3F0E08081482F8B810D
:10238000282F30E081E090E0022E02C0880F991FD4
:102390000A94E2F7842B8C933DC0A8E3B0E0E8E315
:1023A000F0E08081482F8B81282F30E081E090E0A1
:1023B000022E02C0880F991F0A94E2F7842B8C9397
:1023C00029C0A5E3B0E0E5E3F0E08081482F8B81F0
:1023D000282F30E081E090E0022E02C0880F991F84
:1023E0000A94E2F7842B8C9315C0A2E3B0E0E2E3F9
:1023F000F0E08081482F8B81282F30E081E090E051
:10240000022E02C0880F991F0A94E2F7842B8C9346
:1024100001C01982898128960FB6F894DEBF0FBEDD
:10242000CDBFCF91DF910895DF93CF93CDB7DEB7C6
:1024300028970FB6F894DEBF0FBECDBF8A836B839B
:102440004C8381E089838C81882309F076C08A815E
:10245000282F30E038872F838F8198858130910530
:1024600059F12F813885223031052CF48F819885E0
:10247000009769F060C02F8138852230310589F1DD
:102480008F8198858330910509F440C054C0AAE338
:10249000B0E0EAE3F0E08081482F8B81282F30E024
:1024A00081E090E0022E02C0880F991F0A94E2F7A3
:1024B000809584238C93B5C0A7E3B0E0E7E3F0E018
:1024C0008081482F8B81282F30E081E090E0022E20
:1024D00002C0880F991F0A94E2F7809584238C9399
:1024E000A0C0A4E3B0E0E4E3F0E08081482F8B815A
:1024F000282F30E081E090E0022E02C0880F991F63
:102500000A94E2F7809584238C938BC0A1E3B0E01A
:10251000E1E3F0E08081482F8B81282F30E081E0DB
:1025200090E0022E02C0880F991F0A94E2F780956E
:1025300084238C9376C0198274C08C81813009F019
:1025400070C08A81282F30E03E832D838D819E814B
:102550008130910549F12D813E81223031052CF4E5
:102560008D819E81009761F05BC02D813E8122307C
:10257000310571F18D819E8183309105E9F150C063
:10258000AAE3B0E0EAE3F0E08081482F8B81282FB6
:1025900030E081E090E0022E02C0880F991F0A947B
:1025A000E2F7842B8C933DC0A7E3B0E0E7E3F0E0D3
:1025B0008081482F8B81282F30E081E090E0022E2F
:1025C00002C0880F991F0A94E2F7842B8C9329C0CC
:1025D000A4E3B0E0E4E3F0E08081482F8B81282F72
:1025E00030E081E090E0022E02C0880F991F0A942B
:1025F000E2F7842B8C9315C0A1E3B0E0E1E3F0E0B7
:102600008081482F8B81282F30E081E090E0022EDE
:1026100002C0880F991F0A94E2F7842B8C9301C0A3
:102620001982898128960FB6F894DEBF0FBECDBF00
:10263000CF91DF910895DF93CF9300D000D00F9218
:10264000CDB7DEB78A836B838A81282F30E03D8344
:102650002C834C815D814130510541F18C819D81FC
:102660008230910534F42C813D812115310561F0D2
:1026700052C04C815D814230510551F18C819D8168
:1026800083309105B9F147C0E9E3F0E08081282F5C
:1026900030E08B81882F90E0A90102C055954795C5
:1026A0008A95E2F7CA018170898335C0E6E3F0E0DC
:1026B0008081282F30E08B81882F90E0A90102C013
:1026C000559547958A95E2F7CA018170898323C0A1
:1026D000E3E3F0E08081282F30E08B81882F90E0C9
:1026E000A90102C0559547958A95E2F7CA01817004
:1026F000898311C0E0E3F0E08081282F30E08B81F6
:10270000882F90E0A90102C0559547958A95E2F778
:10271000CA018170898389810F900F900F900F906B
:102720000F90CF91DF910895DF93CF9300D000D029
:102730000F92CDB7DEB78A836B8381E089838A816C
:10274000282F30E03D832C838C819D818130910541
:1027500049F12C813D81223031052CF48C819D8101
:10276000009761F05BC02C813D812230310571F111
:102770008C819D8183309105E9F150C0ABE3B0E0DD
:10278000EBE3F0E08081482F8B81282F30E081E05F
:1027900090E0022E02C0880F991F0A94E2F7842766
:1027A0008C933DC0A8E3B0E0E8E3F0E08081482FDF
:1027B0008B81282F30E081E090E0022E02C0880F4C
:1027C000991F0A94E2F784278C9329C0A5E3B0E00F
:1027D000E5E3F0E08081482F8B81282F30E081E015
:1027E00090E0022E02C0880F991F0A94E2F7842716
:1027F0008C9315C0A2E3B0E0E2E3F0E08081482FC3
:102800008B81282F30E081E090E0022E02C0880FFB
:10281000991F0A94E2F784278C9301C01982898159
:102820000F900F900F900F900F90CF91DF91089520
:10283000DF93CF9300D000D00F92CDB7DEB78A835D
:102840006B8381E089838A81282F30E03D832C834C
:102850008C819D8181309105D1F02C813D81223088
:1028600031052CF48C819D81009761F01FC02C8173
:102870003D812230310581F08C819D81833091052D
:1028800081F014C0EBE3F0E08B81808310C0E8E3BB
:10289000F0E08B8180830BC0E5E3F0E08B818083E7
:1028A00006C0E2E3F0E08B81808301C01982898158
:1028B0000F900F900F900F900F90CF91DF91089590
:1028C000DF93CF9300D000D00F92CDB7DEB78A83CD
:1028D0006B8381E089838A81282F30E03D832C83BC
:1028E0008C819D8181309105D1F02C813D812230F8
:1028F00031052CF48C819D81009761F01FC02C81E3
:102900003D812230310581F08C819D81833091059C
:1029100081F014C0EAE3F0E08B81808310C0E7E32C
:10292000F0E08B8180830BC0E4E3F0E08B81808357
:1029300006C0E1E3F0E08B81808301C019828981C8
:102940000F900F900F900F900F90CF91DF910895FF
:10295000DF93CF9300D000D00F92CDB7DEB78A833C
:102960006B8381E089838A81282F30E03D832C832B
:102970008C819D818130910509F43EC02C813D817F
:10298000223031052CF48C819D81009771F0A9C013
:102990002C813D812230310509F455C08C819D8107
:1029A0008330910509F476C09CC0AAE3B0E0EAE365
:1029B000F0E08081482F8B81282F30E081E090E08B
:1029C00002C0880F991F2A95E2F7809584238C9383
:1029D000ABE3B0E0EBE3F0E08081482F8B81282F60
:1029E00030E081E090E0022E02C0880F991F0A9427
:1029F000E2F7842B8C9376C0A7E3B0E0E7E3F0E046
:102A00008081482F8B81282F30E081E090E002C048
:102A1000880F991F2A95E2F7809584238C93A8E369
:102A2000B0E0E8E3F0E08081482F8B81282F30E090
:102A300081E090E0022E02C0880F991F0A94E2F70D
:102A4000842B8C934FC0A4E3B0E0E4E3F0E08081FA
:102A5000482F8B81282F30E081E090E002C0880F62
:102A6000991F2A95E2F7809584238C93A5E3B0E023
:102A7000E5E3F0E08081482F8B81282F30E081E072
:102A800090E0022E02C0880F991F0A94E2F7842B6F
:102A90008C9328C0A1E3B0E0E1E3F0E08081482F0F
:102AA0008B81282F30E081E090E002C0880F991FD1
:102AB0002A95E2F7809584238C93A2E3B0E0E2E3C9
:102AC000F0E08081482F8B81282F30E081E090E07A
:102AD000022E02C0880F991F0A94E2F7842B8C9370
:102AE00001C0198289810F900F900F900F900F9065
:102AF000CF91DF910895DF93CF93CDB7DEB780916B
:102B000094018823D9F4E4E4F0E010821092950156
:102B100010929601109297011092980181E0809393
:102B2000940182E062E00E94760F1092950110926B
:102B3000960110929701109298012AC080919401F9
:102B4000813031F5E4E4F0E08081282F30E040E08E
:102B500050E08091950190919601A0919701B091DC
:102B60009801BA2FA92F982F8827820F931FA41F8F
:102B7000B51F8093900190939101A0939201B0931F
:102B8000930182E08093940182E063E00E94760FDB
:102B9000CF91DF910895DF93CF93CDB7DEB78091CA
:102BA000950190919601A0919701B091980101969D
:102BB000A11DB11D8093950190939601A09397015B
:102BC000B0939801CF91DF910895DF93CF930F9247
:102BD000CDB7DEB781E0898381E063E041E00E9408
:102BE000141282E00E94D20E81E062E040E00E9476
:102BF000141282E063E00E94760F80E062E00E949F
:102C00003B0D0E94C40D2BE735E182E0B9010E9423
:102C100035108BEC95E10E94E70D89810F90CF91E3
:102C2000DF910895DF93CF93CDB7DEB7E0970FB66E
:102C3000F894DEBF0FBECDBF81E063E040E00E94AC
:102C40000D1180E090E0A0EAB0E48DA79EA7AFA7A9
:102C5000B8AB6DA57EA58FA598A92BEA3AEA4AE202
:102C600050E40E941F02DC01CB0189A79AA7ABA701
:102C7000BCA769A57AA58BA59CA520E030E040E81B
:102C80005FE30E94250488231CF481E088A791C09B
:102C900069A57AA58BA59CA520E030E04FE753E419
:102CA0000E94C50318160CF07BC06DA57EA58FA5EC
:102CB00098A920E030E04AE754E40E941903DC01BF
:102CC000CB018CA39DA3AEA3BFA36CA17DA18EA1BC
:102CD0009FA120E030E04AEF54E40E941F02DC0193
:102CE000CB0188A399A3AAA3BBA368A179A18AA1B8
:102CF0009BA120E030E040E85FE30E9425048823A8
:102D00002CF481E090E09F8F8E8F3FC068A179A165
:102D10008AA19BA120E03FEF4FE757E40E94C50343
:102D200018164CF56CA17DA18EA19FA120E030E08A
:102D300040E251E40E941F02DC01CB01BC01CD0145
:102D40000E944900DC01CB019F8F8E8F0FC088EC61
:102D500090E09D8F8C8F8C8D9D8D0197F1F79D8FCD
:102D60008C8F8E8D9F8D01979F8F8E8F8E8D9F8DD7
:102D7000009769F724C068A179A18AA19BA10E944C
:102D80004900DC01CB019F8F8E8F8E8D9F8D9B8F95
:102D90008A8F8A8D9B8D0197F1F79B8F8A8F0FC049
:102DA00069A57AA58BA59CA50E944900DC01CB01F1
:102DB00088A788A5898F898D8A95F1F7898F81E009
:102DC00063E041E00E940D1180E090E0A0E2B1E4F8
:102DD0008D8B9E8BAF8BB88F6D897E898F89988DF7
:102DE0002BEA3AEA4AE250E40E941F02DC01CB01DE
:102DF000898B9A8BAB8BBC8B69897A898B899C89EF
:102E000020E030E040E85FE30E94250488231CF4C2
:102E100081E0888B91C069897A898B899C8920E0BF
:102E200030E04FE753E40E94C50318160CF07BC056
:102E30006D897E898F89988D20E030E04AE754E4DF
:102E40000E941903DC01CB018C879D87AE87BF8769
:102E50006C857D858E859F8520E030E04AEF54E4C7
:102E60000E941F02DC01CB0188879987AA87BB8754
:102E7000688579858A859B8520E030E040E85FE3BE
:102E80000E94250488232CF481E090E09F838E83A8
:102E90003FC0688579858A859B8520E03FEF4FE7B5
:102EA00057E40E94C50318164CF56C857D858E8508
:102EB0009F8520E030E040E251E40E941F02DC01E7
:102EC000CB01BC01CD010E944900DC01CB019F83F5
:102ED0008E830FC088EC90E09D838C838C819D81D4
:102EE0000197F1F79D838C838E819F8101979F834A
:102EF0008E838E819F81009769F724C068857985CC
:102F00008A859B850E944900DC01CB019F838E83CB
:102F10008E819F819B838A838A819B810197F1F7B0
:102F20009B838A830FC069897A898B899C890E94D7
:102F30004900DC01CB01888B8889898389818A9546
:102F4000F1F7898381E063E040E00E940D1114C035
:102F50008091900190919101A0919201B091930183
:102F60002AE330E0B9010E942423CB0190939A0117
:102F7000809399011092940180919401823041F3E1
:102F8000E0960FB6F894DEBF0FBECDBFCF91DF91B4
:102F90000895DF93CF93CDB7DEB783E062E041E0E1
:102FA0000E94141283E063E041E00E94141283E067
:102FB00064E041E00E94141283E066E041E00E9478
:102FC000141283E067E041E00E94141283E065E0A0
:102FD00041E00E94141283E065E041E00E94141277
:102FE00083E066E041E00E94141283E064E041E087
:102FF0000E94141283E065E041E00E940D1183E01D
:1030000066E040E00E940D11CF91DF910895DF93BB
:10301000CF9300D0CDB7DEB789836A8389818130B1
:1030200081F483E062E041E00E940D1183E063E0FF
:1030300040E00E940D1183E064E041E00E940D1128
:103040000DC08981882351F483E062E040E00E9452
:103050000D1183E063E040E00E940D118A81813010
:1030600081F483E066E041E00E940D1183E067E0B7
:1030700040E00E940D1183E065E041E00E940D11E7
:103080000DC08A81882351F483E066E040E00E940D
:103090000D1183E067E040E00E940D110F900F904A
:1030A000CF91DF910895DF93CF9300D0CDB7DEB7F6
:1030B00089836A838981813081F483E062E040E022
:1030C0000E940D1183E063E041E00E940D1183E056
:1030D00064E041E00E940D110DC08981882351F404
:1030E00083E062E040E00E940D1183E063E040E095
:1030F0000E940D118A81813081F483E066E040E016
:103100000E940D1183E067E041E00E940D1183E011
:1031100065E041E00E940D110DC08A81882351F4C1
:1031200083E066E040E00E940D1183E067E040E04C
:103130000E940D110F900F90CF91DF910895DF93B2
:10314000CF93CDB7DEB783E062E040E00E940D117F
:1031500083E063E040E00E940D1183E066E040E020
:103160000E940D1183E067E040E00E940D1183E0B2
:1031700065E040E00E940D11CF91DF910895DF934B
:10318000CF93CDB7DEB780E061E041E00E9414123A
:1031900080E063E041E00E94141280E062E041E0E0
:1031A0000E94141280E062E040E00E940D1180E075
:1031B00064E041E00E94141280E065E041E00E947A
:1031C000141280E066E041E00E94141280E067E0A3
:1031D00041E00E9414120E94AA08813021F482E08A
:1031E0000E9415191FC00E94AA08823021F488E2AB
:1031F0000E94151917C00E94AA08833021F48EE09E
:103200000E9415190FC00E94AA08843021F481E0A1
:103210000E94151907C00E94AA08853019F486E09B
:103220000E941519CF91DF9108950F931F93DF939B
:10323000CF93CDB7DEB7C156D0400FB6F894DEBFFE
:103240000FBECDBFFE01EF59FF4F8083FE01E35A51
:10325000FF4F80E090E8A7E7B4E480839183A283E6
:10326000B3838E01075A1F4FFE01E35AFF4F60815F
:103270007181828193812BEA3AEA4AE250E40E940A
:103280001F02DC01CB01F80180839183A283B38309
:10329000FE01E75AFF4F608171818281938120E0B6
:1032A00030E040E85FE30E942504882334F4FE0107
:1032B000E85AFF4F81E08083E0C0FE01E75AFF4FEC
:1032C000608171818281938120E030E04FE753E497
:1032D0000E94C50318160CF0C0C0FE01E35AFF4F50
:1032E000608171818281938120E030E04AE754E47B
:1032F0000E941903DC01CB01FE01EC5AFF4F8083D1
:103300009183A283B3838E01005B1F4FFE01EC5AB1
:10331000FF4F608171818281938120E030E04AEF2C
:1033200054E40E941F02DC01CB01F80180839183E9
:10333000A283B383FE01E05BFF4F608171818281D4
:10334000938120E030E040E85FE30E942504882379
:1033500044F4FE01E25BFF4F81E090E091838083C3
:1033600064C0FE01E05BFF4F6081718182819381C7
:1033700020E03FEF4FE757E40E94C50318160CF01A
:1033800043C0FE01EC5AFF4F6081718182819381BD
:1033900020E030E040E251E40E941F02DC01CB015A
:1033A0008E01025B1F4FBC01CD010E944900DC0170
:1033B000CB01F801918380831FC0FE01E45BFF4FC6
:1033C00088EC90E091838083FE01E45BFF4F808175
:1033D00091810197F1F7FE01E45BFF4F91838083B8
:1033E000DE01A25BBF4FFE01E25BFF4F8081918156
:1033F000019711969C938E93FE01E25BFF4F8081B3
:1034000091810097D1F64BC08E01025B1F4FFE01E8
:10341000E05BFF4F60817181828193810E9449004E
:10342000DC01CB01F80191838083DE01A65BBF4FF5
:10343000FE01E25BFF4F8081918111969C938E93F8
:10344000FE01E65BFF4F808191810197F1F7FE015C
:10345000E65BFF4F9183808322C08E01085A1F4F85
:10346000FE01E75AFF4F60817181828193810E9442
:103470004900DC01CB01F8018083DE01A75BBF4F6F
:10348000FE01E85AFF4F80818C93FE01E75BFF4FFE
:1034900080818A95F1F7FE01E75BFF4F808380E032
:1034A00061E040E00E940D11FE01EF59FF4F808165
:1034B00082958F70982F917080E064E0492F0E9470
:1034C0000D11FE01EF59FF4F80818295869587701F
:1034D000982F917080E065E0492F0E940D11FE0148
:1034E000EF59FF4F80818295869586958370982F3E
:1034F000917080E066E0492F0E940D11FE01EF59A6
:10350000FF4F8081982F991F9927991F80E067E0CE
:10351000492F0E940D1180E063E041E00E940D11EF
:10352000FE01EB5BFF4F80E090E8A7E7B4E4808307
:103530009183A283B3838E010F5B1F4FFE01EB5B70
:10354000FF4F60817181828193812BEA3AEA4AE2DE
:1035500050E40E941F02DC01CB01F80180839183BB
:10356000A283B383FE01EF5BFF4F60817181828193
:10357000938120E030E040E85FE30E942504882347
:1035800034F481E0FE01E05CFF4F80839DC0FE01CA
:10359000EF5BFF4F608171818281938120E030E099
:1035A0004FE753E40E94C50318160CF07EC0FE01DD
:1035B000EB5BFF4F608171818281938120E030E07D
:1035C0004AE754E40E941903DC01CB018CAF9DAFA4
:1035D000AEAFBFAF6CAD7DAD8EAD9FAD20E030E046
:1035E0004AEF54E40E941F02DC01CB0188AF99AF7F
:1035F000AAAFBBAF68AD79AD8AAD9BAD20E030E03E
:1036000040E85FE30E94250488232CF481E090E0E9
:103610009FAB8EAB3FC068AD79AD8AAD9BAD20E06E
:103620003FEF4FE757E40E94C50318164CF56CAD09
:103630007DAD8EAD9FAD20E030E040E251E40E94D0
:103640001F02DC01CB01BC01CD010E944900DC015D
:10365000CB019FAB8EAB0FC088EC90E09DAB8CABE9
:103660008CA99DA90197F1F79DAB8CAB8EA99FA961
:1036700001979FAB8EAB8EA99FA9009769F72DC0CC
:1036800068AD79AD8AAD9BAD0E944900DC01CB01EC
:103690009FAB8EAB8EA99FA99BAB8AAB8AA99BA936
:1036A0000197F1F79BAB8AAB18C0FE01EF5BFF4FB0
:1036B00060817181828193810E944900DC01CB018C
:1036C000FE01E05CFF4F8083FE01E05CFF4F8081E4
:1036D00089AB89A98A95F1F789AB80E063E040E086
:1036E0000E940D1180E090E8A7E7B4E48DA79EA7A3
:1036F000AFA7B8AB6DA57EA58FA598A92BEA3AEA2E
:103700004AE250E40E941F02DC01CB0189A79AA77C
:10371000ABA7BCA769A57AA58BA59CA520E030E046
:1037200040E85FE30E94250488231CF481E088A719
:1037300091C069A57AA58BA59CA520E030E04FE754
:1037400053E40E94C50318160CF07BC06DA57EA53E
:103750008FA598A920E030E04AE754E40E941903BD
:10376000DC01CB018CA39DA3AEA3BFA36CA17DA163
:103770008EA19FA120E030E04AEF54E40E941F0296
:10378000DC01CB0188A399A3AAA3BBA368A179A15B
:103790008AA19BA120E030E040E85FE30E9425047D
:1037A00088232CF481E090E09F8F8E8F3FC068A12A
:1037B00079A18AA19BA120E03FEF4FE757E40E9447
:1037C000C50318164CF56CA17DA18EA19FA120E028
:1037D00030E040E251E40E941F02DC01CB01BC0159
:1037E000CD010E944900DC01CB019F8F8E8F0FC05D
:1037F00088EC90E09D8F8C8F8C8D9D8D0197F1F7DB
:103800009D8F8C8F8E8D9F8D01979F8F8E8F8E8D2C
:103810009F8D009769F724C068A179A18AA19BA117
:103820000E944900DC01CB019F8F8E8F8E8D9F8D72
:103830009B8F8A8F8A8D9B8D0197F1F79B8F8A8F43
:103840000FC069A57AA58BA59CA50E944900DC0143
:10385000CB0188A788A5898F898D8A95F1F7898FF3
:10386000FE01EF59FF4F8081982F917080E064E056
:10387000492F0E940D11FE01EF59FF4F808186955F
:10388000982F917080E065E0492F0E940D11FE0194
:10389000EF59FF4F808186958695982F917080E033
:1038A00066E0492F0E940D11FE01EF59FF4F808104
:1038B000869586958695982F917080E067E0492FD0
:1038C0000E940D1180E063E041E00E940D1180E054
:1038D00090E8A7E7B4E48D8B9E8BAF8BB88F6D8992
:1038E0007E898F89988D2BEA3AEA4AE250E40E9459
:1038F0001F02DC01CB01898B9A8BAB8BBC8B698956
:103900007A898B899C8920E030E040E85FE30E945F
:10391000250488231CF481E0888B91C069897A8909
:103920008B899C8920E030E04FE753E40E94C50377
:1039300018160CF07BC06D897E898F89988D20E0E8
:1039400030E04AE754E40E941903DC01CB018C8784
:103950009D87AE87BF876C857D858E859F8520E09E
:1039600030E04AEF54E40E941F02DC01CB0188875B
:103970009987AA87BB87688579858A859B8520E09A
:1039800030E040E85FE30E94250488232CF481E0C6
:1039900090E09F838E833FC0688579858A859B856B
:1039A00020E03FEF4FE757E40E94C50318164CF59F
:1039B0006C857D858E859F8520E030E040E251E476
:1039C0000E941F02DC01CB01BC01CD010E94490015
:1039D000DC01CB019F838E830FC088EC90E09D8338
:1039E0008C838C819D810197F1F79D838C838E81DF
:1039F0009F8101979F838E838E819F81009769F7B6
:103A000024C0688579858A859B850E944900DC01F0
:103A1000CB019F838E838E819F819B838A838A8142
:103A20009B810197F1F79B838A830FC069897A890B
:103A30008B899C890E944900DC01CB01888B888995
:103A4000898389818A95F1F7898380E063E040E08A
:103A50000E940D11CF59DF4F0FB6F894DEBF0FBE95
:103A6000CDBFCF91DF911F910F9108950F931F93B9
:103A7000DF93CF93CDB7DEB7C954D0400FB6F894DB
:103A8000DEBF0FBECDBFFE01E75BFF4F8083FE01AF
:103A9000EB5BFF4F80E090E8A7E7B4E4808391837D
:103AA000A283B3838E010F5B1F4FFE01EB5BFF4FC1
:103AB00060817181828193812BEA3AEA4AE250E483
:103AC0000E941F02DC01CB01F80180839183A28355
:103AD000B383FE01EF5BFF4F60817181828193812F
:103AE00020E030E040E85FE30E942504882334F4BE
:103AF00081E0FE01E05CFF4F80839DC0FE01EF5B33
:103B0000FF4F608171818281938120E030E04FE737
:103B100053E40E94C50318160CF07EC0FE01EB5B57
:103B2000FF4F608171818281938120E030E04AE71C
:103B300054E40E941903DC01CB018CAF9DAFAEAF02
:103B4000BFAF6CAD7DAD8EAD9FAD20E030E04AEFF4
:103B500054E40E941F02DC01CB0188AF99AFAAAFE9
:103B6000BBAF68AD79AD8AAD9BAD20E030E040E8F9
:103B70005FE30E94250488232CF481E090E09FAB52
:103B80008EAB3FC068AD79AD8AAD9BAD20E03FEF15
:103B90004FE757E40E94C50318164CF56CAD7DAD98
:103BA0008EAD9FAD20E030E040E251E40E941F0264
:103BB000DC01CB01BC01CD010E944900DC01CB013D
:103BC0009FAB8EAB0FC088EC90E09DAB8CAB8CA90B
:103BD0009DA90197F1F79DAB8CAB8EA99FA9019789
:103BE0009FAB8EAB8EA99FA9009769F72DC068ADDA
:103BF00079AD8AAD9BAD0E944900DC01CB019FAB42
:103C00008EAB8EA99FA99BAB8AAB8AA99BA9019772
:103C1000F1F79BAB8AAB18C0FE01EF5BFF4F6081F1
:103C20007181828193810E944900DC01CB01FE01F8
:103C3000E05CFF4F8083FE01E05CFF4F808189AB39
:103C400089A98A95F1F789AB80E061E041E00E94A3
:103C50000D11FE01E75BFF4F808182958F70982FD9
:103C6000917080E064E0492F0E940D11FE01E75B36
:103C7000FF4F8081829586958770982F917080E0A4
:103C800065E0492F0E940D11FE01E75BFF4F808127
:103C90008295869586958370982F917080E066E076
:103CA000492F0E940D11FE01E75BFF4F8081982F85
:103CB000991F9927991F80E067E0492F0E940D11F5
:103CC00080E063E041E00E940D1180E090E8A7E70A
:103CD000B4E48DA79EA7AFA7B8AB6DA57EA58FA5B1
:103CE00098A92BEA3AEA4AE250E40E941F02DC015A
:103CF000CB0189A79AA7ABA7BCA769A57AA58BA575
:103D00009CA520E030E040E85FE30E942504882382
:103D10001CF481E088A791C069A57AA58BA59CA514
:103D200020E030E04FE753E40E94C50318160CF082
:103D30007BC06DA57EA58FA598A920E030E04AE75D
:103D400054E40E941903DC01CB018CA39DA3AEA314
:103D5000BFA36CA17DA18EA19FA120E030E04AEF1E
:103D600054E40E941F02DC01CB0188A399A3AAA3FB
:103D7000BBA368A179A18AA19BA120E030E040E823
:103D80005FE30E94250488232CF481E090E09F8F5C
:103D90008E8F3FC068A179A18AA19BA120E03FEF4F
:103DA0004FE757E40E94C50318164CF56CA17DA19E
:103DB0008EA19FA120E030E040E251E40E941F026A
:103DC000DC01CB01BC01CD010E944900DC01CB012B
:103DD0009F8F8E8F0FC088EC90E09D8F8C8F8C8D85
:103DE0009D8D0197F1F79D8F8C8F8E8D9F8D019703
:103DF0009F8F8E8F8E8D9F8D009769F724C068A14D
:103E000079A18AA19BA10E944900DC01CB019F8F6F
:103E10008E8F8E8D9F8D9B8F8A8F8A8D9B8D019724
:103E2000F1F79B8F8A8F0FC069A57AA58BA59CA5FA
:103E30000E944900DC01CB0188A788A5898F898D64
:103E40008A95F1F7898F80E063E040E00E940D11D0
:103E5000FE01E75BFF4F8081982F917080E064E066
:103E6000492F0E940D11FE01E75BFF4F808186956F
:103E7000982F917080E065E0492F0E940D11FE019E
:103E8000E75BFF4F808186958695982F917080E043
:103E900066E0492F0E940D11FE01E75BFF4F808114
:103EA000869586958695982F917080E067E0492FDA
:103EB0000E940D1180E063E041E00E940D1180E05E
:103EC00090E8A7E7B4E48D8B9E8BAF8BB88F6D899C
:103ED0007E898F89988D2BEA3AEA4AE250E40E9463
:103EE0001F02DC01CB01898B9A8BAB8BBC8B698960
:103EF0007A898B899C8920E030E040E85FE30E946A
:103F0000250488231CF481E0888B91C069897A8913
:103F10008B899C8920E030E04FE753E40E94C50381
:103F200018160CF07BC06D897E898F89988D20E0F2
:103F300030E04AE754E40E941903DC01CB018C878E
:103F40009D87AE87BF876C857D858E859F8520E0A8
:103F500030E04AEF54E40E941F02DC01CB01888765
:103F60009987AA87BB87688579858A859B8520E0A4
:103F700030E040E85FE30E94250488232CF481E0D0
:103F800090E09F838E833FC0688579858A859B8575
:103F900020E03FEF4FE757E40E94C50318164CF5A9
:103FA0006C857D858E859F8520E030E040E251E480
:103FB0000E941F02DC01CB01BC01CD010E9449001F
:103FC000DC01CB019F838E830FC088EC90E09D8342
:103FD0008C838C819D810197F1F79D838C838E81E9
:103FE0009F8101979F838E838E819F81009769F7C0
:103FF00024C0688579858A859B850E944900DC01FB
:10400000CB019F838E838E819F819B838A838A814C
:104010009B810197F1F79B838A830FC069897A8915
:104020008B899C890E944900DC01CB01888B88899F
:10403000898389818A95F1F7898380E063E040E094
:104040000E940D11C75BDF4F0FB6F894DEBF0FBEA5
:10405000CDBFCF91DF911F910F910895DF93CF9343
:1040600000D00F92CDB7DEB79B838A8319820EC032
:104070008981282F30E08A819B81FC01E20FF31FA8
:1040800080810E94361D89818F5F89838981282FD5
:1040900030E08A819B81FC01E20FF31F808188233D
:1040A00039F70F900F900F90CF91DF910895DF9324
:1040B000CF93CDB7DEB72A970FB6F894DEBF0FBE09
:1040C000CDBF98878F838F819885009719F480E3FF
:1040D0000E94361D19821FC08981E82FFF27E7FD46
:1040E000F0958F8198852AE030E0B9010E94242361
:1040F000282FCE010296E80FF91F20838F81988523
:104100002AE030E0B9010E942423CB0198878F83F5
:1041100089818F5F89838F8198850097E9F68981EE
:10412000815089837EC08981282F332727FD3095D0
:10413000CE010296FC01E20FF31F8081282F30E0B0
:104140003A87298789859A858430910509F44FC07B
:1041500029853A8525303105D4F489859A858130C1
:104160009105C9F129853A85223031052CF48985DC
:104170009A85009761F152C029853A852230310530
:1041800071F189859A858330910569F147C0298548
:104190003A8527303105B9F189859A8588309105AE
:1041A0005CF429853A852530310529F189859A8580
:1041B0008630910521F132C029853A8528303105B4
:1041C00031F189859A858930910529F127C080E3ED
:1041D0000E94361D23C081E30E94361D1FC082E36A
:1041E0000E94361D1BC083E30E94361D17C084E366
:1041F0000E94361D13C085E30E94361D0FC086E362
:104200000E94361D0BC087E30E94361D07C088E35D
:104210000E94361D03C089E30E94361D89818150AA
:104220008983898188230CF07ECF2A960FB6F89473
:10423000DEBF0FBECDBFCF91DF9108950F931F93C7
:10424000DF93CF93CDB7DEB765970FB6F894DEBF97
:104250000FBECDBF6A8B7B8B8C8B9D8B19828A891D
:104260009B89AC89BD890097A105B105B1F480E3B4
:104270000E94361D12C08DE20E94361D8A899B89DC
:10428000AC89BD89B095A095909581959F4FAF4F12
:10429000BF4F8A8B9B8BAC8BBD8B8A899B89AC89EA
:1042A000BD89BB2344F32DC08981082F10E08A8982
:1042B0009B89AC89BD892AE030E040E050E0BC0138
:1042C000CD010E946D23DC01CB01282FCE01029687
:1042D000FC01E00FF11F208389818F5F89838A8928
:1042E0009B89AC89BD892AE030E040E050E0BC0108
:1042F000CD010E946D23DA01C9018A8B9B8BAC8BA7
:10430000BD8B8A899B89AC89BD890097A105B105C0
:1043100099F08981803140F20FC089818150898371
:104320008981282F30E0CE010296FC01E20FF31FB5
:104330008081805D0E94361D8981882371F7659692
:104340000FB6F894DEBF0FBECDBFCF91DF911F91A6
:104350000F910895DF93CF9300D000D0CDB7DEB793
:1043600089836A838981282F30E03C832B838B816A
:104370009C81009731F02B813C812130310549F03F
:104380000FC08A81803160F48A8180580E9415199B
:1043900007C08A81803120F48A8180540E941519D7
:1043A0000F900F900F900F90CF91DF910895DF93B2
:1043B000CF93CDB7DEB781E00E941519CF91DF9181
:1043C0000895DF93CF930F92CDB7DEB781E0898355
:1043D0008091990190919A018F32910540F484E186
:1043E0000E947E0E81E061E00E94531826C08091F9
:1043F000990190919A018033910578F0809199010B
:1044000090919A018533910540F488E20E947E0ED6
:1044100081E060E00E94071810C08091990190919E
:104420009A018533910540F084E10E947E0E81E07F
:1044300061E00E94071801C0198289810F90CF9115
:10444000DF910895DF93CF930F92CDB7DEB70E942F
:1044500012160F90CF91DF910895DF93CF93CDB7D0
:10446000DEB780917E0190917F01A0918001B09193
:1044700081018C389105A105B10531F480919B0132
:104480008F5F80939B015EC080917E0190917F0140
:10449000A0918001B091810180399105A105B105FC
:1044A00031F480919B018F5F80939B014BC0809181
:1044B0007E0190917F01A0918001B09181018439AA
:1044C0009105A105B10531F480919B018F5F809327
:1044D0009B0138C080917E0190917F01A091800165
:1044E000B091810188399105A105B10531F4809120
:1044F0009B018F5F80939B0125C080917E019091ED
:104500007F01A0918001B09181018C399105A105B5
:10451000B10531F480919B018F5F80939B0112C0A4
:1045200080917E0190917F01A0918001B0918101E5
:104530008E399105A105B10529F480919B018F5F0A
:1045400080939B018091820190918301A0918401CD
:10455000B0918501803D27E0920720E0A20720E08E
:10456000B207C1F40E94AA088630A1F480E060E09E
:104570000E94AA210E94D7218091990190919A01CD
:104580000E945720109282011092830110928401A0
:1045900010928501CF91DF910895DF93CF93CDB72E
:1045A000DEB70E94BF180E94AA088630E1F780E0BB
:1045B00062E041E00E94141280E062E040E00E946C
:1045C0000D1183E066E040E00E9414120E94E515A0
:1045D00080E062E040E00E9417070E946B088DE2D5
:1045E00092E20E94B3080E942C0E0E94C917CF913C
:1045F000DF910895DF93CF93CDB7DEB70E94CD2230
:104600000E9422220E94E121FBCF629FD001739F72
:10461000F001829FE00DF11D649FE00DF11D929F5E
:10462000F00D839FF00D749FF00D659FF00D99279D
:10463000729FB00DE11DF91F639FB00DE11DF91FC1
:10464000BD01CF0111240895AA1BBB1B51E107C076
:10465000AA1FBB1FA617B70710F0A61BB70B881F12
:10466000991F5A95A9F780959095BC01CD010895A1
:1046700097FB092E07260AD077FD04D0E5DF06D088
:1046800000201AF4709561957F4F0895F6F7909584
:1046900081959F4F0895A1E21A2EAA1BBB1BFD0115
:1046A0000DC0AA1FBB1FEE1FFF1FA217B307E40711
:1046B000F50720F0A21BB30BE40BF50B661F771F69
:1046C000881F991F1A9469F7609570958095909549
:1046D0009B01AC01BD01CF01089597FB092E052672
:1046E0000ED057FD04D0D7DF0AD0001C38F4509507
:1046F0004095309521953F4F4F4F5F4F0895F6F706
:1047000090958095709561957F4F8F4F9F4F08953D
:104710002F923F924F925F926F927F928F929F92D1
:10472000AF92BF92CF92DF92EF92FF920F931F93BF
:10473000CF93DF93CDB7DEB7CA1BDB0B0FB6F89470
:10474000DEBF0FBECDBF09942A88398848885F84B0
:104750006E847D848C849B84AA84B984C884DF8021
:10476000EE80FD800C811B81AA81B981CE0FD11D05
:104770000FB6F894DEBF0FBECDBFED010895F894DB
:02478000FFCF69
:104782000000000000000000000102020303030316
:1047920004040404040404040505050505050505CF
:1047A20005050505050505050606060606060606AF
:1047B2000606060606060606060606060606060697
:1047C200060606060606060607070707070707077F
:1047D2000707070707070707070707070707070767
:1047E2000707070707070707070707070707070757
:1047F2000707070707070707070707070707070747
:10480200070707070707070708080808080808082E
:104812000808080808080808080808080808080816
:104822000808080808080808080808080808080806
:1048320008080808080808080808080808080808F6
:1048420008080808080808080808080808080808E6
:1048520008080808080808080808080808080808D6
:1048620008080808080808080808080808080808C6
:1048720008080808080808080808080808080808B6
:1048820008080808080808080100010000008C0058
:02489200000024
:00000001FF
